{
  "contractName": "UICBuilding",
  "abi": [
    {
      "constant": true,
      "inputs": [],
      "name": "totalBuildings",
      "outputs": [
        {
          "name": "",
          "type": "uint256"
        }
      ],
      "payable": false,
      "stateMutability": "view",
      "type": "function",
      "signature": "0x3ba5c722"
    },
    {
      "constant": true,
      "inputs": [
        {
          "name": "",
          "type": "uint256"
        }
      ],
      "name": "building",
      "outputs": [
        {
          "name": "buildingIndex",
          "type": "string"
        },
        {
          "name": "buildingId",
          "type": "string"
        },
        {
          "name": "buildingName",
          "type": "string"
        },
        {
          "name": "buildingCode",
          "type": "string"
        },
        {
          "name": "buildingAddress",
          "type": "string"
        },
        {
          "name": "buildingBuiltDate",
          "type": "string"
        },
        {
          "name": "buildingNASF",
          "type": "string"
        },
        {
          "name": "buildingNUSF",
          "type": "string"
        },
        {
          "name": "buldingGSF",
          "type": "string"
        },
        {
          "name": "buildingCategory",
          "type": "string"
        },
        {
          "name": "BuildingRegion",
          "type": "string"
        }
      ],
      "payable": false,
      "stateMutability": "view",
      "type": "function",
      "signature": "0x66ad3ffc"
    },
    {
      "inputs": [],
      "payable": false,
      "stateMutability": "nonpayable",
      "type": "constructor",
      "signature": "constructor"
    },
    {
      "constant": false,
      "inputs": [
        {
          "name": "_buildingIndex",
          "type": "string"
        },
        {
          "name": "_buildingId",
          "type": "string"
        },
        {
          "name": "_buildingName",
          "type": "string"
        },
        {
          "name": "_buildingCode",
          "type": "string"
        },
        {
          "name": "_buildingAddress",
          "type": "string"
        },
        {
          "name": "_buildingBuiltDate",
          "type": "string"
        },
        {
          "name": "_buildingNASF",
          "type": "string"
        },
        {
          "name": "_buildingNUSF",
          "type": "string"
        },
        {
          "name": "_buldingGSF",
          "type": "string"
        },
        {
          "name": "_buildingCategory",
          "type": "string"
        },
        {
          "name": "_BuildingRegion",
          "type": "string"
        }
      ],
      "name": "addBuilding",
      "outputs": [],
      "payable": false,
      "stateMutability": "nonpayable",
      "type": "function",
      "signature": "0x34b18f41"
    },
    {
      "constant": true,
      "inputs": [
        {
          "name": "index",
          "type": "uint256"
        }
      ],
      "name": "getBuilindingAddress",
      "outputs": [
        {
          "components": [
            {
              "name": "buildingIndex",
              "type": "string"
            },
            {
              "name": "buildingId",
              "type": "string"
            },
            {
              "name": "buildingName",
              "type": "string"
            },
            {
              "name": "buildingCode",
              "type": "string"
            },
            {
              "name": "buildingAddress",
              "type": "string"
            },
            {
              "name": "buildingBuiltDate",
              "type": "string"
            },
            {
              "name": "buildingNASF",
              "type": "string"
            },
            {
              "name": "buildingNUSF",
              "type": "string"
            },
            {
              "name": "buldingGSF",
              "type": "string"
            },
            {
              "name": "buildingCategory",
              "type": "string"
            },
            {
              "name": "BuildingRegion",
              "type": "string"
            }
          ],
          "name": "",
          "type": "tuple"
        }
      ],
      "payable": false,
      "stateMutability": "view",
      "type": "function",
      "signature": "0x7b325b9c"
    },
    {
      "constant": false,
      "inputs": [],
      "name": "checkIsAdmin",
      "outputs": [
        {
          "name": "",
          "type": "bool"
        }
      ],
      "payable": false,
      "stateMutability": "nonpayable",
      "type": "function",
      "signature": "0x8b75ccc9"
    },
    {
      "constant": false,
      "inputs": [
        {
          "name": "_buildingIndex",
          "type": "uint256"
        }
      ],
      "name": "removeBuiding",
      "outputs": [],
      "payable": false,
      "stateMutability": "nonpayable",
      "type": "function",
      "signature": "0x58eb2d65"
    }
  ],
  "bytecode": "0x608060405234801561001057600080fd5b50336000806101000a81548173ffffffffffffffffffffffffffffffffffffffff021916908373ffffffffffffffffffffffffffffffffffffffff160217905550611b33806100606000396000f3fe608060405260043610610078576000357c0100000000000000000000000000000000000000000000000000000000900463ffffffff16806334b18f411461007d5780633ba5c722146100a657806358eb2d65146100d157806366ad3ffc146100fa5780637b325b9c146101415780638b75ccc91461017e575b600080fd5b34801561008957600080fd5b506100a4600480360361009f9190810190611528565b6101a9565b005b3480156100b257600080fd5b506100bb6103ca565b6040516100c89190611a07565b60405180910390f35b3480156100dd57600080fd5b506100f860048036036100f39190810190611720565b6103d0565b005b34801561010657600080fd5b50610121600480360361011c9190810190611720565b610507565b6040516101389b9a999897969594939291906118ed565b60405180910390f35b34801561014d57600080fd5b5061016860048036036101639190810190611720565b610be9565b60405161017591906119e5565b60405180910390f35b34801561018a57600080fd5b5061019361130e565b6040516101a091906118d2565b60405180910390f35b6000809054906101000a900473ffffffffffffffffffffffffffffffffffffffff1673ffffffffffffffffffffffffffffffffffffffff163373ffffffffffffffffffffffffffffffffffffffff1614151561020457600080fd5b600260008154809291906001019190505550610160604051908101604052808c81526020018b81526020018a8152602001898152602001888152602001878152602001868152602001858152602001848152602001838152602001828152506001600060025481526020019081526020016000206000820151816000019080519060200190610294929190611376565b5060208201518160010190805190602001906102b1929190611376565b5060408201518160020190805190602001906102ce929190611376565b5060608201518160030190805190602001906102eb929190611376565b506080820151816004019080519060200190610308929190611376565b5060a0820151816005019080519060200190610325929190611376565b5060c0820151816006019080519060200190610342929190611376565b5060e082015181600701908051906020019061035f929190611376565b5061010082015181600801908051906020019061037d929190611376565b5061012082015181600901908051906020019061039b929190611376565b5061014082015181600a0190805190602001906103b9929190611376565b509050505050505050505050505050565b60025481565b6000809054906101000a900473ffffffffffffffffffffffffffffffffffffffff1673ffffffffffffffffffffffffffffffffffffffff163373ffffffffffffffffffffffffffffffffffffffff1614151561042b57600080fd5b600160008281526020019081526020016000206000808201600061044f91906113f6565b60018201600061045f91906113f6565b60028201600061046f91906113f6565b60038201600061047f91906113f6565b60048201600061048f91906113f6565b60058201600061049f91906113f6565b6006820160006104af91906113f6565b6007820160006104bf91906113f6565b6008820160006104cf91906113f6565b6009820160006104df91906113f6565b600a820160006104ef91906113f6565b50506002600081548092919060019003919050555050565b6001602052806000526040600020600091509050806000018054600181600116156101000203166002900480601f0160208091040260200160405190810160405280929190818152602001828054600181600116156101000203166002900480156105b35780601f10610588576101008083540402835291602001916105b3565b820191906000526020600020905b81548152906001019060200180831161059657829003601f168201915b505050505090806001018054600181600116156101000203166002900480601f0160208091040260200160405190810160405280929190818152602001828054600181600116156101000203166002900480156106515780601f1061062657610100808354040283529160200191610651565b820191906000526020600020905b81548152906001019060200180831161063457829003601f168201915b505050505090806002018054600181600116156101000203166002900480601f0160208091040260200160405190810160405280929190818152602001828054600181600116156101000203166002900480156106ef5780601f106106c4576101008083540402835291602001916106ef565b820191906000526020600020905b8154815290600101906020018083116106d257829003601f168201915b505050505090806003018054600181600116156101000203166002900480601f01602080910402602001604051908101604052809291908181526020018280546001816001161561010002031660029004801561078d5780601f106107625761010080835404028352916020019161078d565b820191906000526020600020905b81548152906001019060200180831161077057829003601f168201915b505050505090806004018054600181600116156101000203166002900480601f01602080910402602001604051908101604052809291908181526020018280546001816001161561010002031660029004801561082b5780601f106108005761010080835404028352916020019161082b565b820191906000526020600020905b81548152906001019060200180831161080e57829003601f168201915b505050505090806005018054600181600116156101000203166002900480601f0160208091040260200160405190810160405280929190818152602001828054600181600116156101000203166002900480156108c95780601f1061089e576101008083540402835291602001916108c9565b820191906000526020600020905b8154815290600101906020018083116108ac57829003601f168201915b505050505090806006018054600181600116156101000203166002900480601f0160208091040260200160405190810160405280929190818152602001828054600181600116156101000203166002900480156109675780601f1061093c57610100808354040283529160200191610967565b820191906000526020600020905b81548152906001019060200180831161094a57829003601f168201915b505050505090806007018054600181600116156101000203166002900480601f016020809104026020016040519081016040528092919081815260200182805460018160011615610100020316600290048015610a055780601f106109da57610100808354040283529160200191610a05565b820191906000526020600020905b8154815290600101906020018083116109e857829003601f168201915b505050505090806008018054600181600116156101000203166002900480601f016020809104026020016040519081016040528092919081815260200182805460018160011615610100020316600290048015610aa35780601f10610a7857610100808354040283529160200191610aa3565b820191906000526020600020905b815481529060010190602001808311610a8657829003601f168201915b505050505090806009018054600181600116156101000203166002900480601f016020809104026020016040519081016040528092919081815260200182805460018160011615610100020316600290048015610b415780601f10610b1657610100808354040283529160200191610b41565b820191906000526020600020905b815481529060010190602001808311610b2457829003601f168201915b50505050509080600a018054600181600116156101000203166002900480601f016020809104026020016040519081016040528092919081815260200182805460018160011615610100020316600290048015610bdf5780601f10610bb457610100808354040283529160200191610bdf565b820191906000526020600020905b815481529060010190602001808311610bc257829003601f168201915b505050505090508b565b610bf161143e565b600160008381526020019081526020016000206101606040519081016040529081600082018054600181600116156101000203166002900480601f016020809104026020016040519081016040528092919081815260200182805460018160011615610100020316600290048015610caa5780601f10610c7f57610100808354040283529160200191610caa565b820191906000526020600020905b815481529060010190602001808311610c8d57829003601f168201915b50505050508152602001600182018054600181600116156101000203166002900480601f016020809104026020016040519081016040528092919081815260200182805460018160011615610100020316600290048015610d4c5780601f10610d2157610100808354040283529160200191610d4c565b820191906000526020600020905b815481529060010190602001808311610d2f57829003601f168201915b50505050508152602001600282018054600181600116156101000203166002900480601f016020809104026020016040519081016040528092919081815260200182805460018160011615610100020316600290048015610dee5780601f10610dc357610100808354040283529160200191610dee565b820191906000526020600020905b815481529060010190602001808311610dd157829003601f168201915b50505050508152602001600382018054600181600116156101000203166002900480601f016020809104026020016040519081016040528092919081815260200182805460018160011615610100020316600290048015610e905780601f10610e6557610100808354040283529160200191610e90565b820191906000526020600020905b815481529060010190602001808311610e7357829003601f168201915b50505050508152602001600482018054600181600116156101000203166002900480601f016020809104026020016040519081016040528092919081815260200182805460018160011615610100020316600290048015610f325780601f10610f0757610100808354040283529160200191610f32565b820191906000526020600020905b815481529060010190602001808311610f1557829003601f168201915b50505050508152602001600582018054600181600116156101000203166002900480601f016020809104026020016040519081016040528092919081815260200182805460018160011615610100020316600290048015610fd45780601f10610fa957610100808354040283529160200191610fd4565b820191906000526020600020905b815481529060010190602001808311610fb757829003601f168201915b50505050508152602001600682018054600181600116156101000203166002900480601f0160208091040260200160405190810160405280929190818152602001828054600181600116156101000203166002900480156110765780601f1061104b57610100808354040283529160200191611076565b820191906000526020600020905b81548152906001019060200180831161105957829003601f168201915b50505050508152602001600782018054600181600116156101000203166002900480601f0160208091040260200160405190810160405280929190818152602001828054600181600116156101000203166002900480156111185780601f106110ed57610100808354040283529160200191611118565b820191906000526020600020905b8154815290600101906020018083116110fb57829003601f168201915b50505050508152602001600882018054600181600116156101000203166002900480601f0160208091040260200160405190810160405280929190818152602001828054600181600116156101000203166002900480156111ba5780601f1061118f576101008083540402835291602001916111ba565b820191906000526020600020905b81548152906001019060200180831161119d57829003601f168201915b50505050508152602001600982018054600181600116156101000203166002900480601f01602080910402602001604051908101604052809291908181526020018280546001816001161561010002031660029004801561125c5780601f106112315761010080835404028352916020019161125c565b820191906000526020600020905b81548152906001019060200180831161123f57829003601f168201915b50505050508152602001600a82018054600181600116156101000203166002900480601f0160208091040260200160405190810160405280929190818152602001828054600181600116156101000203166002900480156112fe5780601f106112d3576101008083540402835291602001916112fe565b820191906000526020600020905b8154815290600101906020018083116112e157829003601f168201915b5050505050815250509050919050565b60008060009054906101000a900473ffffffffffffffffffffffffffffffffffffffff1673ffffffffffffffffffffffffffffffffffffffff163373ffffffffffffffffffffffffffffffffffffffff16141561136e5760019050611373565b600090505b90565b828054600181600116156101000203166002900490600052602060002090601f016020900481019282601f106113b757805160ff19168380011785556113e5565b828001600101855582156113e5579182015b828111156113e45782518255916020019190600101906113c9565b5b5090506113f29190611499565b5090565b50805460018160011615610100020316600290046000825580601f1061141c575061143b565b601f01602090049060005260206000209081019061143a9190611499565b5b50565b6101606040519081016040528060608152602001606081526020016060815260200160608152602001606081526020016060815260200160608152602001606081526020016060815260200160608152602001606081525090565b6114bb91905b808211156114b757600081600090555060010161149f565b5090565b90565b600082601f83011215156114d157600080fd5b81356114e46114df82611a4f565b611a22565b9150808252602083016020830185838301111561150057600080fd5b61150b838284611aa6565b50505092915050565b60006115208235611a9c565b905092915050565b60008060008060008060008060008060006101608c8e03121561154a57600080fd5b60008c013567ffffffffffffffff81111561156457600080fd5b6115708e828f016114be565b9b505060208c013567ffffffffffffffff81111561158d57600080fd5b6115998e828f016114be565b9a505060408c013567ffffffffffffffff8111156115b657600080fd5b6115c28e828f016114be565b99505060608c013567ffffffffffffffff8111156115df57600080fd5b6115eb8e828f016114be565b98505060808c013567ffffffffffffffff81111561160857600080fd5b6116148e828f016114be565b97505060a08c013567ffffffffffffffff81111561163157600080fd5b61163d8e828f016114be565b96505060c08c013567ffffffffffffffff81111561165a57600080fd5b6116668e828f016114be565b95505060e08c013567ffffffffffffffff81111561168357600080fd5b61168f8e828f016114be565b9450506101008c013567ffffffffffffffff8111156116ad57600080fd5b6116b98e828f016114be565b9350506101208c013567ffffffffffffffff8111156116d757600080fd5b6116e38e828f016114be565b9250506101408c013567ffffffffffffffff81111561170157600080fd5b61170d8e828f016114be565b9150509295989b509295989b9093969950565b60006020828403121561173257600080fd5b600061174084828501611514565b91505092915050565b61175281611a86565b82525050565b600061176382611a7b565b808452611777816020860160208601611ab5565b61178081611ae8565b602085010191505092915050565b60006101608301600083015184820360008601526117ac8282611758565b915050602083015184820360208601526117c68282611758565b915050604083015184820360408601526117e08282611758565b915050606083015184820360608601526117fa8282611758565b915050608083015184820360808601526118148282611758565b91505060a083015184820360a086015261182e8282611758565b91505060c083015184820360c08601526118488282611758565b91505060e083015184820360e08601526118628282611758565b91505061010083015184820361010086015261187e8282611758565b91505061012083015184820361012086015261189a8282611758565b9150506101408301518482036101408601526118b68282611758565b9150508091505092915050565b6118cc81611a92565b82525050565b60006020820190506118e76000830184611749565b92915050565b6000610160820190508181036000830152611908818e611758565b9050818103602083015261191c818d611758565b90508181036040830152611930818c611758565b90508181036060830152611944818b611758565b90508181036080830152611958818a611758565b905081810360a083015261196c8189611758565b905081810360c08301526119808188611758565b905081810360e08301526119948187611758565b90508181036101008301526119a98186611758565b90508181036101208301526119be8185611758565b90508181036101408301526119d38184611758565b90509c9b505050505050505050505050565b600060208201905081810360008301526119ff818461178e565b905092915050565b6000602082019050611a1c60008301846118c3565b92915050565b6000604051905081810181811067ffffffffffffffff82111715611a4557600080fd5b8060405250919050565b600067ffffffffffffffff821115611a6657600080fd5b601f19601f8301169050602081019050919050565b600081519050919050565b60008115159050919050565b6000819050919050565b6000819050919050565b82818337600083830152505050565b60005b83811015611ad3578082015181840152602081019050611ab8565b83811115611ae2576000848401525b50505050565b6000601f19601f830116905091905056fea265627a7a72305820dba13d1e2a48eb2f02a08041e4b721d940ae110a996c4c2e777c1f909777d30b6c6578706572696d656e74616cf50037",
  "source": "pragma solidity >=0.4.22 <0.6.0;\r\npragma experimental ABIEncoderV2;\r\ncontract UICBuilding {\r\n    \r\n    address  owner;\r\n    mapping(uint => Building) public building;\r\n    uint public totalBuildings;\r\n    \r\n    modifier onlyOwner {\r\n        require (msg.sender == owner);\r\n        _;\r\n    }\r\n    \r\n\r\n    struct Building{\r\n        string buildingIndex;\r\n        string buildingId;\r\n        string buildingName;\r\n        string buildingCode;\r\n        string buildingAddress;\r\n        string buildingBuiltDate;\r\n        string buildingNASF;\r\n        string buildingNUSF;\r\n        string buldingGSF;\r\n        string buildingCategory;\r\n        string BuildingRegion;\r\n    }\r\n    \r\n    constructor ()  public {\r\n        owner = msg.sender;\r\n    }\r\n\r\n\r\n    function addBuilding(string memory _buildingIndex, \r\n                         string memory _buildingId, \r\n                         string memory _buildingName, \r\n                         string memory _buildingCode,\r\n                         string memory _buildingAddress,\r\n                         string memory _buildingBuiltDate,\r\n                         string memory _buildingNASF,\r\n                         string memory _buildingNUSF,\r\n                         string memory _buldingGSF,\r\n                         string memory _buildingCategory,\r\n                         string memory _BuildingRegion ) public onlyOwner{\r\n        totalBuildings++;\r\n        building[totalBuildings] = Building(_buildingIndex, _buildingId, _buildingName, _buildingCode, _buildingAddress, _buildingBuiltDate, _buildingNASF, _buildingNUSF, _buldingGSF, _buildingCategory, _BuildingRegion);\r\n    }\r\n\r\n    function getBuilindingAddress(uint index) view public returns (Building memory){\r\n        return building[index];\r\n    }\r\n\r\n    function checkIsAdmin() public returns (bool){\r\n    \tif(msg.sender == owner ){\r\n    \t\treturn true;\r\n    \t}\r\n    \treturn false;\r\n    }\r\n    \r\n    function removeBuiding(uint _buildingIndex) public onlyOwner{\r\n    \tdelete building[_buildingIndex];\r\n        totalBuildings--;\r\n    }\r\n}\r\n",
  "sourcePath": "C:/Users/deexi/CS540/UICBuildingBlock/contracts/UICBuilding.sol",
  "compiler": {
    "name": "solc",
    "version": "0.5.0+commit.1d4f565a.Emscripten.clang"
  },
  "schemaVersion": "3.0.8",
  "updatedAt": "2019-04-30T00:37:17.562Z",
  "devdoc": {
    "methods": {}
  },
  "userdoc": {
    "methods": {}
  }
}